:020000040800F2
:10000000600E0020A5010008F9170008D5160008A9
:10001000F5170008B90200089D1E00080000000046
:10002000000000000000000000000000A919000806
:10003000BD02000800000000FD170008AD1900080F
:10004000BF010008BF010008BF010008BF01000890
:10005000BF010008BF010008BF010008BF01000880
:10006000BF010008BF010008BF010008BF01000870
:10007000BF010008BF010008BF010008BF01000860
:10008000BF010008BF010008BF010008BF01000850
:10009000BF010008BF010008BF010008BF01000840
:1000A000BF010008BF010008BF010008BF01000830
:1000B000BF0100080000000000000000BF010008B0
:1000C000BF0100080000000000000000BF010008A0
:1000D000000000008D1E0008BF01000800000000A5
:1000E000BF010008BF010008000000000000000080
:1000F0000000000000000000000000000000000000
:10010000000000000000000000000000BF01000827
:100110000000000000000000BF010008BF0100084F
:10012000BF010008BF010008BF010008BF010008AF
:10013000BF010008000000000000000000000000F7
:10014000BF010008BF010008BF010008BF0100088F
:10015000BF010008BF010008BF010008BF0100087F
:10016000BF010008BF010008BF0100080000000037
:10017000BF010008BF0100080000000000000000EF
:10018000BF010008BF010008BF010008DFF810D060
:1001900000F080F800480047BD200008AFF3008061
:1001A000600E00200648804706480047FEE7FEE74D
:1001B000FEE7FEE7FEE7FEE7FEE7FEE7FEE7FEE717
:1001C000651A00088D0100082DE9F05F0546002042
:1001D00092469B4688460646814640241BE02846B8
:1001E00041464746224600F044F853465A46C01A54
:1001F000914110D311461846224600F02BF82D1AD3
:1002000067EB01084F4622460120002100F022F84A
:1002100017EB00094E41201EA4F10104DFDC484623
:1002200031462A46434600F000B830BCBDE8C09FC6
:10023000D2B201E000F8012B491EFBD27047002228
:10024000F6E710B513460A4604461946FFF7F0FFD5
:10025000204610BD202A04DB203A00FA02F10020DB
:1002600070479140C2F1200320FA03F319439040F4
:100270007047202A04DB203A21FA02F0002170475F
:1002800021FA02F3D040C2F12002914008431946FE
:1002900070470000064C074D06E0E06840F001039F
:1002A00094E8070098471034AC42F6D3FFF772FF8A
:1002B000742300089423000800BFFEE7704772B65D
:1002C00000BFFEE710B590F825100022022905D0E6
:1002D0000421C16380F82420012010BD01680B684F
:1002E00023F00E030B6001680B6823F001030B6021
:1002F00090F84410046C01F01C03012101FA03F38F
:10030000636080F8251080F82420104610BD10B5D9
:1003100090F825100024022903D00421C163012490
:100320001AE001680A6822F00E020A6001680A6891
:1003300022F001020A6090F84410036C01F01C02E4
:10034000012101FA02F25A6080F82510002180F89C
:100350002410816B01B18847204610BD2DE9FC4F68
:10036000DFF880A1002301250AF1040B03244FF0DC
:100370000F0C0BF1040EAEE005FA03F632406FD01D
:100380004F68012F05D0022F03D0112F01D0122F5B
:1003900017D1D0F808905F0004FA07F829EA080995
:1003A0000097D1F80C8008FA07F848EA0908C0F865
:1003B00008804768B7430E79C6F300169E403E4357
:1003C0004660C6684FEA430804FA08F7BE4301973F
:1003D0008F6807FA08F73743C7604E68022E01D0CE
:1003E000122E13D1DE0800EB86060096366A5F07F0
:1003F000FF0E0CFA07F926EA0906D1F8109009FA5F
:1004000007F949EA0609009EC6F820900768019E90
:10041000B7430E7906F0030606FA08F63E43066077
:100420004E68F60056D5304E376E47F001073766F6
:10043000366E23F0030706F0010600962B4E3E446D
:10044000B146B6689F074FEA17780CFA08F7BE4323
:10045000B0F1904F05D0264FB84204D1012708E0F3
:1004600038E0002705E0234FB84201D1022700E021
:10047000072707FA08F73743C9F80870DAF8006069
:100480005746D1F8048096435FEAC83800D5164332
:100490003E60DBF800605F46D1F8048096435FEA77
:1004A000883800D516433E60DEF800607746D1F804
:1004B000048096435FEAC82800D516433E60094F82
:1004C0000C373E68D1F8048096435FEA882800D54F
:1004D00016433E605B1C0A6832FA03F67FF44CAFA9
:1004E00000F00AB800040140001002400000014082
:1004F00000040048000800481CBCBDE8E08F0AB1B9
:1005000081617047816270470148806870470000D0
:100510000800002090F84120202A24D190F84020A3
:10052000012A20D0012280F84020242280F8412096
:100530000268136823F0010313600268136823F450
:1005400080531360026813680B43136001680A68E4
:1005500042F001020A60202180F84110002180F859
:100560004010084670470220704790F84120202A2A
:1005700022D190F84020012A1ED0012280F840208C
:10058000242280F841200268136823F001031360DD
:100590000268136823F4706343EA01211160016863
:1005A0000A6842F001020A60202180F8411000210F
:1005B00080F84010084670470220704770B504006C
:1005C00004D094F84100002510B106E0012070BD70
:1005D00084F84050204600F04DF8242084F8410073
:1005E0002068016821F0010101606068216820F045
:1005F000706008612068816821F400418160E068D2
:100600000128A06807D040F4044021688860E068B1
:10061000022803D006E040F40040F6E721684FF4DA
:100620000060486020684168114A114341602068B9
:10063000C16821F40041C160D4E904010843A16903
:1006400040EA01202168C860D4E907010843216815
:1006500008602068016841F00101016065642020A4
:1006600084F84100256384F84250002070BD0000EA
:100670000080000210B586B00446142101A8FFF7DF
:10068000DEFD18492068884229D100BF1648C06C99
:1006900040F002001449C8640846C06C00F0020033
:1006A000009000BF00BFC0200190122002900120E6
:1006B0000390032004900420059001A90B48FFF744
:1006C0004DFE00BF0848806D40F400100649886563
:1006D0000846806D00F40010009000BF00BF06B017
:1006E00010BD00000054004000100240000400480B
:1006F0000248816802781144816070470800002038
:1007000010B50024032000F07BF8002000F008F86A
:1007100008B1012401E000F025F8204610BD0000DA
:1007200070B50E4E05460024307898B14FF47A71BA
:10073000B1FBF0F00A490968B1FBF0F000F0C0FD30
:1007400040B9102D06D200222946501E00F038F87C
:10075000756000E00124204670BD00000800002004
:100760001400002008B500BF0D48006E40F00100E5
:100770000B4908660846006E00F00100009000BFBB
:1007800000BF00BF0846806D40F080508865084675
:10079000806D00F08050009000BF00BF08BD0000D9
:1007A00000100240002809DB00F01F0201219140E7
:1007B0004009800000F1E020C0F8001170470000FF
:1007C000F0B40E4B1B680C46C3F30223C3F10705BC
:1007D000042D00D90425191D072901D2002300E0AA
:1007E000DB1E012606FA05F1491E214099409E4074
:1007F000761E16403143F0BC01F052BB0CED00E018
:10080000064900F0070208684FF6FF03184040EA67
:100810000220034A10430860704700000CED00E01E
:100820000000FA051649B0F5007F0868C0F34120C2
:1008300009D0022805D0086820F4C06040F4806028
:100840000860002070470128FBD0086820F4C060D1
:1008500040F4007008600B483222006850430A4A96
:10086000B0FBF2F0401C00E0401E4A69520501D581
:100870000028F9D148694005E3D5032070470000FE
:10088000007000401400002040420F000248006841
:1008900000F4C0607047000000700040024801682A
:1008A00041F48071016070470070004002480168A7
:1008B00041F0040101607047001002402DE9F84F3B
:1008C0000446002700889C4D3E46000515D5E06B88
:1008D00060B1B0F5000F04D0B0F5400F2BD0012768
:1008E0000AE0E86840F48030E86024E00021201D40
:1008F00000F086FF07001ED03E462068800338D5F2
:10090000A86D4FF00008C00009D4A86D40F08050D9
:10091000A865A86D4FF0010800F080500090DFF846
:100920001CA2DAF8001041F48071CAF80010FFF739
:10093000EBFD814610E0D5F88800E16B20F4400023
:100940000843C5F88800D8E7FFF7DEFDA0EB0900F3
:10095000022801D9032704E0DAF80000C005F3D526
:10096000EFB33E46B8F1000F03D0A86D20F08050E1
:10097000A8652078C00707D0D5F88800216A20F044
:1009800003000843C5F888002078800707D5D5F80C
:100990008800616A20F00C000843C5F888002078C0
:1009A000800607D5D5F88800A16A20F44060084386
:1009B000C5F888002088800507D5D5F88800616BC8
:1009C00020F440200843C5F888002088400509D558
:1009D000D5F88800A16B20F44010084300E02EE019
:1009E000C5F888002078400607D5D5F88800E16A68
:1009F00020F440500843C5F888002088C00507D57A
:100A0000D5F88800216B20F440300843C5F88800F1
:100A100020884FF0006780044FF080684ED5D5F8ED
:100A20008800216C20F040600843C5F88800206CE5
:100A3000B8423BD1E86840F48010E8603EE0D5F869
:100A4000900010F4407014D0216D814211D0D5F87F
:100A50009000D5F8901020F4407041F48031C5F832
:100A60009010D5F8901021F48031C5F89010C5F899
:100A70009000C00711D0FFF747FD074641F28839C3
:100A800007E000BFFFF740FDC11B494501D9032620
:100A900068E7D5F890008007F4D5D5F89000216D6F
:100AA00020F440700843C5F890005BE7404505D14D
:100AB0000121201D00F0A4FE00B10646206840037D
:100AC00017D5D5F88800616C20F040600843C5F860
:100AD0008800606CB84204D1E86840F48010E86097
:100AE00007E0404505D10121201D00F089FE00B13D
:100AF00006462088400411D5D5F88800A16C20F066
:100B000040500843C5F88800A06CB0F1805F05D163
:100B10000221201D00F074FE00B10646208800046A
:100B200006D555F8880FE16C20F080400843286016
:100B3000304600F005B80000001002400070004090
:100B400018BCBDE8E08F00002DE9F0470F46050016
:100B500058D0404E306800F00700B84209D23068E3
:100B600020F0070038433060306800F00700B842DA
:100B700048D12878384CC0072CD06868032811D099
:100B8000022812D0216898B1490500293ADAA168F3
:100B900021F003010143A160FFF7B6FC804641F25A
:100BA000883910E021688901EFE721688903ECE7C3
:100BB0008907EAE7FFF7A8FCA0EB0801494502D93D
:100BC0000320BDE8F087A068696800F00C00B0EB76
:100BD000810FEFD12878800705D5A068A96820F09B
:100BE000F0000843A060306800F00700B8420BD95D
:100BF000306820F0070038433060306800F00700AC
:100C0000B84201D00120DCE72878400705D5A0686C
:100C1000E96820F4E0600843A0602878000706D562
:100C2000A068296920F4605040EAC100A06000F08B
:100C30003FF8A168094AC1F30311515C01F01F019B
:100C4000C8400749086007480068BDE8F047FFF75B
:100C500067BD000000200240001002402C23000865
:100C6000140000200C00002005480649006889682F
:100C7000054AC1F30221515C01F01F01C8407047D1
:100C800014000020001002406C23000805480649AB
:100C900000688968054AC1F3C221515C01F01F0157
:100CA000C840704714000020001002406C23000868
:100CB00070B52549002318468A68CC6812F00C02EA
:100CC00004F00306214C4FEA640509D00C2A05D034
:100CD000042A32D0082A00D1284670BD012E10D136
:100CE0000B681B0704D4D1F89430C3F3032302E04C
:100CF0000B68C3F30313164E56F82330DAB10C2AEF
:100D0000EBD1C86800F00300022818D0032818D0DF
:100D10001846CA68CB68C2F30212C3F306234343E2
:100D2000521CB3FBF2F2C868C0F34160401C4000A3
:100D3000B2FBF0F070BD184670BD204670BD204675
:100D4000E7E72846E5E70000001002400024F40031
:100D50003C2300082DE9F84304006FD0FE4DA8683D
:100D600000F00C06E86800F003072078C00664D5A0
:100D700076B10C2E01D1012F0AD0A0690028286875
:100D80007AD040F001002860FFF7BEFB80465DE0AE
:100D90002868800702D5A0690028DED0216A28686B
:100DA000000703D5286800F0F00004E0D5F89400AF
:100DB000F02202EA1010814216D9084600F0B6FD72
:100DC00000283BD1286840F0080028602868216A84
:100DD00020F0F000084328606868E16920F47F4053
:100DE00040EA0120686016E0286840F008002860AA
:100DF0002868216A20F0F000084328606868E169EB
:100E000020F47F4040EA0120686026B9206A00F0A3
:100E10008DFD0028D5D1FFF74BFFA968CF4AC1F35C
:100E20000311515C01F01F01C840CD490860CD4855
:100E30000068FFF775FC00287ED12EE0CAE000BFF5
:100E4000FFF762FBA0EB0800022876D8286880072D
:100E5000F6D5286840F0080028602868216A20F04C
:100E6000F000084328606868E16920F47F4040EAA8
:100E70000120686011E0FFE720F001002860FFF723
:100E800043FB804606E000BFFFF73EFBA0EB0800F7
:100E90000228DAD828688007F6D42078C00740D026
:100EA000082E18D00C2E01D1032F14D06068B0F595
:100EB000803F17D0B0F5A02F286817D020F48030DD
:100EC0002860286820F4802028606068E0B1FFF77F
:100ED0001BFB804614E02868800322D56068002848
:100EE00078D01EE0286840F48030EDE740F48020A0
:100EF0002860F7E7FFF708FBA0EB08006428A4D8F8
:100F000028688003F6D50CE0FFF7FEFA804605E07E
:100F1000FFF7FAFAA0EB0800642896D82868800347
:100F2000F6D4207880073BD5042E11D00C2E01D1A9
:100F3000022F0DD0E06801E0B6E1FFE0002828684C
:100F40001ED040F480702860FFF7DEFA07460CE000
:100F5000286840050CD5E0680028C1D008E000BF33
:100F6000FFF7D2FAC01B022893D828684005F7D5AE
:100F70006868217C20F0F85040EA016068600FE06A
:100F800020F480702860FFF7BFFA074605E000BF35
:100F9000FFF7BAFAC01B0228B1D828684005F7D479
:100FA0002078000729D560690028D5F8940012D070
:100FB00040F00100C5F89400FFF7A6FA074604E0E8
:100FC000FFF7A2FAC01B022899D8D5F89400800731
:100FD000F6D512E02BE120F00100C5F89400FFF7F0
:100FE00093FA074605E000BFFFF78EFAC01B022800
:100FF00085D8D5F894008007F6D42078400766D5C8
:10100000A86D0027C00008D4A86D40F08050A865E6
:10101000A86D012700F08050009053480168C90571
:1010200012D40168814641F480710160FFF76CFAC7
:10103000804605E0FFF768FAA0EB080002287DD89B
:10104000D9F80000C005F5D5A068012816D00528FC
:10105000D5F8900017D020F00100C5F89000D5F821
:10106000900020F0040000BFC5F89000A06841F295
:101070008839C0B1FFF748FA80460FE0D5F89000F4
:1010800040F00100F0E740F00400C5F89000F5E7FB
:10109000FFF73AFAA0EB080149454FD8D5F8900080
:1010A0008007F5D50EE0FFF72FFA804606E000BF77
:1010B000FFF72AFAA0EB080149453FD8D5F8900080
:1010C0008007F5D41FB1A86D20F08050A865207866
:1010D000800628D5606A0028D5F8980012D040F024
:1010E0000100C5F89800FFF70FFA074605E000BFBA
:1010F000FFF70AFAC01B022820D8D5F8980080070D
:10110000F6D510E020F00100C5F89800FFF7FCF9D3
:10111000074604E0FFF7F8F9C01B02280ED8D5F8FF
:1011200098008007F6D4A06AA8B1022824D00C2E1B
:101130007DD0286820F08070286000E0B3E0286847
:10114000000103D4E86820F00300E860E86807497C
:101150000840E8600CE09FE0001002402C230008EB
:10116000140000200C00002000700040FFFFEEFE85
:10117000FFF7CAF9044699E0E868E26A00F0030163
:10118000914226D1216B00F0700209011039914281
:101190001FD1626B00F4FE41B1EB022F19D194F81C
:1011A000382000F07841B1EBC26F12D1A18F00F46A
:1011B000C00249084905A1F50011914209D194F8EE
:1011C000401000F0C06049084906A1F10071814259
:1011D0004BD00C2E6FD0286840016CD4286820F0CA
:1011E00080702860FFF790F9064604E0FFF78CF95D
:1011F000801B022857D828688001F7D4F4E90B0136
:101200006FF00F0202EB01110843218A52044908D2
:1012100002EB4151A26841EA02210843217D4FF0CF
:101220007E42490802EB41610843217B00E042E035
:1012300040EAC160E968214A11400843E860286833
:1012400040F080702860E86840F08070E860FFF748
:101250005BF9044605E000BFFFF756F9001B0228C2
:1012600021D828688001F7D523E02868800120D4A0
:10127000286840F080702860E86840F08070E8607E
:10128000FFF742F9044604E0FFF73EF9001B02288D
:1012900009D828688001F7D50BE000BFFFF734F9C3
:1012A000001B022802D90320BDE8F88328688001CA
:1012B000F4D40020F8E70120F6E700008C809D01BF
:1012C00010B5401EB0F1807F01D3012010BD4FF05A
:1012D000E02460610F21601700F0E2FD0020A061B2
:1012E00007202061002010BD704770477047000044
:1012F0002DE9F04102680446D0691168936840F610
:101300000F0528424FF0000505D1860678D58E06D8
:1013100076D5616EF3E0834F03F001060F4037434B
:101320007ED0C70709D0CF0507D501271762D4F8AB
:10133000802042F00102C4F8802082070AD5DA0733
:1013400008D0276802223A62D4F8802042F00402D2
:10135000C4F8802042070AD5DA0708D0236804229F
:101360001A62D4F8802042F00202C4F880200207FA
:101370000CD501F02002324308D0236808221A62FB
:10138000D4F8802042F00802C4F8802002050BD572
:101390004A0109D523684FF400621A62D4F880200C
:1013A00042F02002C4F88020D4F88020002A2FD0F8
:1013B000800605D5880603D5616E09B120468847A9
:1013C000D4F8800021688968490602D410F0280FFB
:1013D00020D0204600F000FC20688168490614D522
:1013E000816821F040018160206F70B14E498163B6
:1013F000206FFEF78CFF00280AD0206F816B01E080
:101400000EE02046BDE8F04108472046FFF76EFF9A
:10141000BDE8F0812046FFF769FFC4F88050F7E788
:10142000276E2026012F59D1C70657D5CF0655D58F
:10143000102010622268906840062ED5216F08683F
:1014400040680004000CE3D0B4F858308342DFD980
:10145000A4F85A0008680068800617D4106820F4C1
:10146000807010602068816821F00101816020682F
:10147000816821F040018160E66725662068016887
:1014800021F010010160206FFEF71CFFB4F8580036
:10149000B4F85A10401A81B21CE0B4F85800B4F8FD
:1014A0005A10401A81B2B4F85A000028B0D000296E
:1014B000AED0106820F4907010602068826822F02E
:1014C00001028260E667256665662068026822F090
:1014D000100202602046FFF707FF99E7C70209D50F
:1014E0005B0207D54FF4801010622046BDE8F04142
:1014F000FFF7FBBE030606D50B0604D5A16E002937
:101500007FF47FAF84E7400682D5480680D5106817
:1015100020F040001060A6672046A56600F0D9F8CC
:1015200076E7000020010004C51B000810B5040088
:1015300002D0A06F10B107E0012010BD002084F898
:101540007400204600F026F82420A0672068016877
:1015500021F001010160204600F056FB0128ECD08B
:10156000606A10B1204600F09BFA2068416821F4BF
:10157000904141602068816821F02A0181602068E3
:10158000016841F0010101602046BDE8104000F013
:10159000EBBA000010B586B00446142101A8FEF78E
:1015A0004EFE1C492068884232D100BF1A48006EA6
:1015B00040F48040184908660846006E00F48040F8
:1015C000009000BF00BF00BF0846C06C40F00100A3
:1015D000C8640846C06C00F00100009000BF00BF66
:1015E0004FF4C0600190022002900020039003207D
:1015F00004900720059001A94FF09040FEF7AEFE41
:10160000002211462520FFF7DBF82520FFF7CAF856
:1016100006B010BD00380140001002402DE9F8432B
:101620000446806F1F4616460D4620284FD1CDB187
:10163000C6B194F87400012849D0012084F87400E0
:101640004FF00008C4F880802120A067FEF75CFFFF
:10165000A4F850608146A4F85260A068B0F5805F9D
:1016600003D004E00120BDE8F883206928B12E46AC
:101670005FF0000584F8748010E00026FAE780210E
:10168000204600F0B1FBB8B9C6B116F8010B2168CD
:101690000885B4F85200401EA4F85200B4F8520075
:1016A0004B464FF0000200970028E8D14FF0400170
:1016B000204600F099FB30B10320D4E735F8020B47
:1016C000C0F30800E3E72020A0670020CBE702205A
:1016D000C9E7704700BFFEE700B587B0142102A834
:1016E000FEF7ADFD00BF1D48C06C40F004001B4973
:1016F000C8640846C06C00F00400019000BF00BF41
:1017000000BF0846C06C40F00100C8640846C06CC9
:1017100000F00100019000BF00BF00BF0846C06C90
:1017200040F00200C8640846C06C00F0020001905E
:1017300000BF00BF002208214FF09040FEF7DFFEFF
:10174000082002900120039000200490059002A937
:101750004FF09040FEF702FE07B000BD00100240BF
:1017600010B512481249086040F614604860002124
:101770000F4881600121C1600021016141618161E7
:10178000C1610162FEF71AFF08B1FEF798FD002162
:101790000748FEF7BFFE08B1FEF791FD002104489F
:1017A000FEF7E3FE08B1FEF78AFD10BD00540040CD
:1017B000140A002010B50D480D4908604FF416506A
:1017C000486000210A488160C16001610C214161CB
:1017D00000218161C161016200200549486208461B
:1017E000FFF7A4FE08B1FEF76AFD10BD0038014006
:1017F0009009002000BFFEE700BFFEE77047000031
:101800002DE9F041444C05468846E06800268107F2
:1018100028680DD0E16801F00301814216D1A8B11A
:10182000E0686968C0F30210401C88420ED120E0D5
:10183000012804D0022805D0032807D108E0216838
:10184000890701E021684905002907DB01265FE0DF
:101850002168890302D421684903F5E7E1686A68D1
:101860006FF00F0321F0730103EB021211430143E8
:10187000E160206820F080602060FEF745FE0746AA
:1018800005E000BFFEF740FEC01B022837D82068E5
:101890000001F7D4B8F1000F18D0B8F1010F1DD036
:1018A000287D4FF07E41400801EB4060A96840EA86
:1018B00001202169194A114008432061206840F045
:1018C00080602060FEF720FE07461AE0A868297BAA
:1018D000000240EAC1602169114AECE7288A1149F7
:1018E000400801EB4050A96840EA012021690E4AF6
:1018F000E1E700BFFEF708FEC01B022801D903265E
:1019000006E020680001F5D52069A9690843206137
:101910003046BDE8F081000000100240FF80FFF972
:10192000FF80FF070000E0FFFF809FFFF8B51C4D20
:1019300006460024A86DC00002D5FEF7A7FF0DE003
:10194000A86D40F08050A865A86D00F08050009010
:10195000FEF79CFFA96D21F08051A965B0F5007FCD
:1019600004D0802E07D94FF003040AE0802E08D956
:10197000A02E01D804E001D1022402E0702E00D193
:1019800001240848016821F0070121430160006833
:1019900000F00700A04201D00120F8BD0020F8BDF2
:1019A00000100240002002407047000010B50448BB
:1019B0000068401C02490860FEF79AFE10BD000056
:1019C0000000002000B5ABB044211AA8FEF737FC98
:1019D000142115A8FEF733FC54216846FEF72FFCAE
:1019E000FEF75CFF1E48006820F018001C49903983
:1019F000C1F8900014201A9001201C902090002023
:101A0000219060202290002024901AA8FFF7A2F9CC
:101A100008B1FEF754FC0F20159000201690179087
:101A200018901990002115A8FFF78EF808B1FEF75D
:101A300046FC41200090002008900B906846FEF77D
:101A40003DFF08B1FEF73BFC4FF40070FEF7EAFEE5
:101A500008B1FEF734FCFEF729FF2BB000BD0000F3
:101A6000901002400B48016841F4700101600A487F
:101A7000016841F001010160002181600268074BAB
:101A80001A4002608214C260026822F4802202605E
:101A90008161704788ED00E000100240FFFFF6EA28
:101AA00090F82410C90706D001684A68836A22F4B6
:101AB00000321A434A6090F82410890706D501685D
:101AC0004A68C36A22F480321A434A6090F82410AC
:101AD000490706D501684A68036B22F480221A433D
:101AE0004A6090F82410090706D501684A68436BDC
:101AF00022F400421A434A6090F82410C90606D521
:101B000001688A68836B22F480521A438A6090F8D5
:101B10002410890606D501688A68C36B22F4005236
:101B20001A438A6090F82410490611D501684A6862
:101B3000036C22F480121A434A60016CB1F5801FD5
:101B400006D101684A68436C22F4C0021A434A6015
:101B500090F82410090606D501684A68806C22F4C2
:101B6000002202434A607047F8B500260446C0F8D8
:101B70008060FEF7C9FC0546206800686FF07E476C
:101B8000000708D52B4600224FF40011204600978D
:101B900000F02AF960B92068006840070AD52B4692
:101BA00000224FF480012046009700F01DF908B193
:101BB0000320F8BD2020A067E067266684F87460E3
:101BC0000020F8BD10B5806A0021A0F85A10A0F8D6
:101BD0005210FFF78BFB10BD01680A6822F4907267
:101BE0000A6001688A6822F001028A60016E012998
:101BF00004D101680A6822F010020A602021C1673E
:101C000000210166416670472DE9F04104460068F5
:101C10002269A168E66911436269002532431143D4
:101C20006A4B02686A4E32400A430260206841688B
:101C3000E26821F44051114341602168A069994252
:101C400001D0226A10438A6822F4306202438A601B
:101C50006049276860488F420DD1D0F8880010F0A5
:101C6000030006D0012838D0022834D0032821D11F
:101C700035E001211FE059498F420BD1D0F888008F
:101C800010F00C0025D0042827D0082823D00C28D9
:101C900010D124E09F420DD1D0F8880010F44060AC
:101CA00017D0B0F5806F18D0B0F5006F13D0B0F535
:101CB000406F14D010214A4800264FF400429F4242
:101CC0002DD171B1022912D004290DD0082971D16A
:101CD00023E00021EFE70221EDE70421EBE70821F3
:101CE000E9E7FEF7C1FF01E0FEF7E2FFE8B3626853
:101CF00002EB420181425DD8B0EB023F5AD8010E9F
:101D000003025008181871410023FEF75DFA354AA6
:101D1000A0F54071914251D94CE01046E7E7E369E4
:101D20004FF6EF77934229D1092943D2DFE801F03A
:101D300005080E420B4242422400FEF795FF04E0E4
:101D4000FEF7A4FF01E0FEF7B3FF70B14100606849
:101D500001EB5001B1FBF0F080B2A0F11001B942EB
:101D600028D84FF6F071014000E029E0C0F34200AE
:101D700001432068C16023E01046E7E7092919D232
:101D8000DFE801F005080E180B1818181A00FEF706
:101D90006BFF04E0FEF77AFF01E0FEF789FF78B100
:101DA000616800EB5100B0FBF1F080B2A0F11001CE
:101DB000B94203D9012503E01046F1E72168C86064
:101DC00066662846A666BDE8F081000000800040F7
:101DD000F369FFEF0038014000100240004400406A
:101DE0000024F400FFFC0F002DE9F0479A46174647
:101DF0000E4604464FF000094FF02008089D39E0D8
:101E0000681C37D0FEF780FBA0EB0A00A84222D85E
:101E10000DB32068016849072CD5C069C04300058F
:101E200028D421684FF4006008622068016821F41A
:101E3000D07101602068816821F001018160C4F8DF
:101E40007880C4F87C80C4F8808000BF84F87490E7
:101E50000320BDE8F0872068016821F4D07101609B
:101E60002068816821F001018160C4F87880C4F89D
:101E70007C80EBE72068C06936EA000004D00020CF
:101E8000B842BDD00020E4E70120F9E710B50248D0
:101E9000FFF72EFA10BD00009009002000BFFEE7FA
:101EA0000907090E002804DB00F1E02080F8001487
:101EB000704700F00F0000F1E02080F8141D70471B
:101EC00002E008C8121F08C1002AFAD17047704703
:101ED000002001E001C1121F002AFBD1704770B53C
:101EE000044600250DE06A1C02EB4202A36803EBE6
:101EF00082011A4605EB450302EB830000F0CCF9A2
:101F00006D1C6068401EA842EDDCD4E90101401E52
:101F100000EB400001EB80066068401E60603046C8
:101F200070BD000010B5002018E01D49896800EB65
:101F3000400201EB8201896800290EDD1849896899
:101F400000EB400201EB82018968491E144A926845
:101F500000EB400302EB83029160401C104949688A
:101F60008142E2DC07E00E48FFF7B9FF04460EC8E5
:101F70000C4800F065F80A484068002804DD08486D
:101F8000806880680028EED004E00648FFF7A7FFCD
:101F90000468A047034840680028F6DC10BD000034
:101FA000240000201800002070B586B006460C46BC
:101FB00015460396049405950398009004980190A3
:101FC0000598034602900348DDE9001200F038F856
:101FD00006B070BD1800002008B5342000900A2318
:101FE000012269460848FFF719FB0A230222074924
:101FF0000548FFF713FB4FF416720121AFF22700DB
:1020000000F022F908BD0000900900200400002023
:102010006420074908600020486006488860642002
:102020000549086000204860044888607047000047
:10203000180000203000002024000020E0040020D0
:102040001FB584B00446606803906068401C6060FF
:10205000059800900698019007980290A168039A4D
:1020600002EB420201EB820000990160019941609C
:1020700002998160039808B908B010BD0EE0A2680B
:10208000039B03EB430302EB83011346039A521CA9
:1020900002EB420203EB820000F0FEF8039858B115
:1020A000A1680398401E039000EB400001EB800004
:1020B000406801998842E2DC00BFDDE7FEF720FBC3
:1020C000FFF780FCFFF708FBFFF74AFBFFF772FB07
:1020D00028480068006840F0200026490968086028
:1020E0000020FEF71DFB244800681422B0FBF2F12B
:1020F000481EB0F1807F00D31BE0481E4FF0E02265
:10210000506150170F22002804DB13071C0E1B4BD5
:102110001C5406E013071D0E194B00F00F04241F7A
:102120001D5500BF00204FF0E02290610720106194
:1021300000BFFFF76DFF012205211248FFF734FFB2
:10214000012202211048FFF72FFF012203210F482F
:10215000FFF72AFF012211460D48FFF725FF07E090
:102160000C48006820B1FFF7DDFE00200949086037
:10217000F6E70000900900201400002000E400E0D1
:1021800018ED00E099210008F5220008BD220008A2
:10219000D91F00080000002008B5312000900A2354
:1021A000012269460748FFF739FA0A230222064945
:1021B0000448FFF733FA64220121AFF2230000F054
:1021C00043F808BD90090020040000201FB584B02A
:1021D0000446606803906068401C60600598009049
:1021E0000698019007980290A168039A02EB4202B8
:1021F00001EB8200009901600199416002998160C0
:10220000039808B908B010BD0EE0A268039B03EB69
:10221000430302EB83011346039A521C02EB420272
:1022200003EB820000F038F8039858B1A1680398D6
:10223000401E039000EB400001EB80008068029993
:102240008842E2DC00BFDDE770B586B006460D4689
:10225000144603960495059464B903980090049875
:1022600001900598034602900948DDE90012FFF746
:10227000E7FE0BE003980090049801900598034650
:1022800002900448DDE90012FFF7A0FF06B070BD20
:1022900018000020240000201EB502680092426849
:1022A00001928268029291E81C0080E81C00009A6A
:1022B0000A60019A4A60029A8A601EBD08B53320FE
:1022C00000900A23012269460848FFF7A7F90A236C
:1022D000022207490548FFF7A1F94FF42F720121A7
:1022E000AFF22700FFF7B0FF08BD00009009002003
:1022F0000400002008B5322000900A23012269461C
:102300000848FFF78BF90A23022207490548FFF71F
:1023100085F94FF4C8720121AFF22700FFF794FF4F
:1023200008BD00009009002004000020000000000B
:10233000000000000102030406070809A08601004E
:10234000400D0300801A060000350C0040420F00CB
:1023500080841E0000093D0000127A000024F40071
:1023600000366E010048E801006CDC02000000004D
:10237000010203049423000800000020180000005C
:10238000C01E0008AC23000818000020480E000002
:10239000D01E0008000000000A0D0000010000002F
:0C23A000100000000000000000093D00DB
:040000050800018D61
:00000001FF
