:020000040800F2
:10000000700E0020A5010008471B0008711A0008A7
:10001000451B0008A9040008FD220008000000009C
:10002000000000000000000000000000F51C0008B7
:10003000E104000800000000491B0008F91C00084A
:10004000BF010008BF010008BF010008BF01000890
:10005000BF010008BF010008BF010008BF01000880
:10006000BF010008BF010008BF010008BF01000870
:10007000BF010008BF010008BF010008BF01000860
:10008000BF010008BF010008BF010008BF01000850
:10009000BF010008BF010008BF010008BF01000840
:1000A000BF010008BF010008BF010008BF01000830
:1000B000D11D00080000000000000000BF01000882
:1000C000BF0100080000000000000000BF010008A0
:1000D00000000000BF010008BF0100080000000090
:1000E000BF010008BF010008000000000000000080
:1000F0000000000000000000000000000000000000
:10010000000000000000000000000000BF01000827
:100110000000000000000000BF010008BF0100084F
:10012000BF010008BF010008BF010008BF010008AF
:10013000BF010008000000000000000000000000F7
:10014000BF010008BF010008BF010008BF0100088F
:10015000BF010008BF010008BF010008BF0100087F
:10016000BF010008BF010008BF0100080000000037
:10017000BF010008BF0100080000000000000000EF
:10018000BF010008BF010008BF010008DFF810D060
:1001900000F078F90048004789240008AFF3008098
:1001A000700E00200648804706480047FEE7FEE73D
:1001B000FEE7FEE7FEE7FEE7FEE7FEE7FEE7FEE717
:1001C000951D00088D0100082DE9F05F054600200F
:1001D00092469B4688460646814640241BE02846B8
:1001E00041464746224600F0DFF853465A46C01AB9
:1001F000914110D311461846224600F0C6F82D1A38
:1002000067EB01084F4622460120002100F0BDF8AF
:1002100017EB00094E41201EA4F10104DFDC484623
:1002200031462A46434600F000B830BCBDE8C09FC6
:10023000D2B201E000F8012B491EFBD27047002228
:10024000F6E710B513460A4604461946FFF7F0FFD5
:10025000204610BD2DE9FE4F81EA030404F000445E
:1002600021F0004100944FF0000B23F0004350EACE
:1002700001045ED052EA03045BD0C3F30A54C1F315
:100280000A552C44A4F2F3340194A0FB0254C1F3A8
:10029000130141F48011C3F3130343F4801301FBF2
:1002A000024400FB034E840A970A44EA815447EA59
:1002B0008357A4FB076802958D0A05FB07854FEA63
:1002C000932C04FB0C542705029D4FEA065847EA7D
:1002D0001637B5EB08056EEB070C870E920E47EA52
:1002E000811742EA8312A7FB0201B6EB0B0164EB14
:1002F00000042B0D43EA0C335E1844EB1C50DA4625
:100300005146E7FB0201C5F313044FEA0B3343EAFE
:1003100014534FEA0432019C43EA0603A4F10C048F
:100320000294009CCDE900B400F05DF803B000F049
:1003300003B800200146F9E730BCBDE8C08F0EB518
:1003400040F2334102910021CDE900110A460B46EB
:1003500000F049F803B000BDC1F30A5210B5C1F373
:10036000130140F2FF3341F480119A4201DA002078
:1003700010BD40F233439A42A2F2334203DC5242B0
:1003800000F012F810BD904010BD202A04DB203A86
:1003900000FA02F1002070479140C2F1200320FAD8
:1003A00003F3194390407047202A04DB203A21FAD6
:1003B00002F00021704721FA02F3D040C2F120027E
:1003C000914008431946704710B5141E73F100049C
:1003D00008DA401C41F1000192185B411A4301D137
:1003E00020F0010010BD2DE9F04D92469B4611B161
:1003F000B1FA81F202E0B0FA80F220329046FFF7C3
:10040000C4FF04460F4640EA0A0041EA0B01534686
:100410005A46084313D0114653EA010019D0C8F1D7
:1004200040025046FFF7C0FF05460E46504659466B
:100430004246FFF7AAFF084305D0012004E020460A
:100440003946BDE8F08D0020054346EAE0762C43AE
:1004500037430A986305E40AA0EB08000022FD0A6E
:1004600044EA47540A3002D500200146E9E7010575
:1004700010196941DDE9084500196941BDE8F04DF1
:10048000A2E70000064C074D06E0E06840F00103DB
:1004900094E8070098471034AC42F6D3FFF77AFE91
:1004A0006026000880260008FEE7000010B508213D
:1004B0004FF0904000F0F9F808480078152801D96D
:1004C0000A2204E0082801D2012200E042080121AA
:1004D000AFF22700BDE8104002F078B8000000201D
:1004E0007047000070B5044600F0ECF80546601C4B
:1004F00002D004480078044400F0E4F8401BA04215
:10050000FAD370BD140000202DE9FC4FDFF880A164
:10051000002301250AF1040B03244FF00F0C0BF10B
:10052000040EAEE005FA03F632406FD04F68012F9B
:1005300005D0022F03D0112F01D0122F17D1D0F8E0
:1005400008905F0004FA07F829EA08090097D1F833
:100550000C8008FA07F848EA0908C0F808804768DC
:10056000B7430E79C6F300169E403E434660C66808
:100570004FEA430804FA08F7BE4301978F6807FA69
:1005800008F73743C7604E68022E01D0122E13D1F0
:10059000DE0800EB86060096366A5F07FF0E0CFA4F
:1005A00007F926EA0906D1F8109009FA07F949EA8D
:1005B0000609009EC6F820900768019EB7430E7991
:1005C00006F0030606FA08F63E4306604E68F6009B
:1005D00056D5304E376E47F001073766366E23F03A
:1005E000030706F0010600962B4E3E44B146B6685E
:1005F0009F074FEA17780CFA08F7BE43B0F1904F07
:1006000005D0264FB84204D1012708E038E0002782
:1006100005E0234FB84201D1022700E0072707FA7F
:1006200008F73743C9F80870DAF800605746D1F880
:10063000048096435FEAC83800D516433E60DBF875
:1006400000605F46D1F8048096435FEA883800D5A1
:1006500016433E60DEF800607746D1F8048096438A
:100660005FEAC82800D516433E60094F0C373E6844
:10067000D1F8048096435FEA882800D516433E608F
:100680005B1C0A6832FA03F67FF44CAF00F00AB83C
:100690000004014000100240000001400004004836
:1006A000000800481CBCBDE8E08F426921EA020353
:1006B0000A4043EA0241816170470AB18161704793
:1006C0008162704701488068704700001400002074
:1006D000024881680278114481607047140000204C
:1006E00010B50024032000F071F8002000F008F895
:1006F00008B1012401E000F025F8204610BD0000FB
:1007000070B50E4E05460024307898B14FF47A71DA
:10071000B1FBF0F00A490968B1FBF0F000F0A6FD6A
:1007200040B9102D06D200222946501E00F02EF8A6
:10073000756000E00124204670BD00001400002018
:1007400020000020094808B5016E41F00101016652
:10075000016E01F001010091816D41F080518165D0
:10076000806D00F08050009008BD00000010024035
:10077000002809DB00F01F020121914040098000A0
:1007800000F1E020C0F8001170470000F0B40E4BFB
:100790001B680C46C3F30223C3F10705042D00D9DF
:1007A0000425191D072901D2002300E0DB1E0126C4
:1007B00006FA05F1491E214099409E40761E1640DA
:1007C0003143F0BC01F09BBD0CED00E0064900F0A8
:1007D000070208684FF6FF03184040EA0220034A68
:1007E00010430860704700000CED00E00000FA05BF
:1007F0001649B0F5007F0868C0F3412009D00228EF
:1008000005D0086820F4C06040F4806008600020D3
:1008100070470128FBD0086820F4C06040F40070E5
:1008200008600B483222006850430A4AB0FBF2F0DD
:10083000401C00E0401E4A69520501D50028F9D14C
:1008400048694005E3D50320704700000070004070
:100850002000002040420F000248006800F4C06001
:1008600070470000007000402DE9F84F0446002753
:1008700000889C4D3E46000515D5E06B60B1B0F593
:10088000000F04D0B0F5400F2BD001270AE0E86834
:1008900040F48030E86024E00021201D01F056F98A
:1008A00007001ED03E462068800338D5A86D4FF063
:1008B0000008C00009D4A86D40F08050A865A86D5C
:1008C0004FF0010800F080500090DFF81CA2DAF829
:1008D000001041F48071CAF80010FFF7F3FE814662
:1008E00010E0D5F88800E16B20F440000843C5F81B
:1008F0008800D8E7FFF7E6FEA0EB0900022801D93F
:10090000032704E0DAF80000C005F3D5EFB33E4654
:10091000B8F1000F03D0A86D20F08050A8652078B2
:10092000C00707D0D5F88800216A20F003000843EB
:10093000C5F888002078800707D5D5F88800616A57
:1009400020F00C000843C5F888002078800607D501
:10095000D5F88800A16A20F440600843C5F88800F3
:100960002088800507D5D5F88800616B20F44020E9
:100970000843C5F888002088400509D5D5F88800C7
:10098000A16B20F44010084300E02EE0C5F8880079
:100990002078400607D5D5F88800E16A20F4405059
:1009A0000843C5F888002088C00507D5D5F8880019
:1009B000216B20F440300843C5F8880020884FF0B0
:1009C000006780044FF080684ED5D5F88800216C10
:1009D00020F040600843C5F88800206CB8423BD145
:1009E000E86840F48010E8603EE0D5F8900010F42C
:1009F000407014D0216D814211D0D5F89000D5F807
:100A0000901020F4407041F48031C5F89010D5F872
:100A1000901021F48031C5F89010C5F89000C007FF
:100A200011D0FFF74FFE074641F2883907E000BFBB
:100A3000FFF748FEC11B494501D9032668E7D5F8F1
:100A400090008007F4D5D5F89000216D20F4407017
:100A50000843C5F890005BE7404505D10121201D02
:100A600001F074F800B106462068400317D5D5F8A8
:100A70008800616C20F040600843C5F88800606C15
:100A8000B84204D1E86840F48010E86007E04045CF
:100A900005D10121201D01F059F800B1064620883A
:100AA000400411D5D5F88800A16C20F040500843CF
:100AB000C5F88800A06CB0F1805F05D10221201D2F
:100AC00001F044F800B106462088000406D555F828
:100AD000880FE16C20F0804008432860304600F029
:100AE00005B80000001002400070004018BCBDE8CE
:100AF000E08F00002DE9F0470F46050058D0404E2A
:100B0000306800F00700B84209D2306820F00700D2
:100B100038433060306800F00700B84248D1287888
:100B2000384CC0072CD06868032811D0022812D096
:100B3000216898B1490500293ADAA16821F003013A
:100B40000143A160FFF7BEFD804641F2883910E005
:100B500021688901EFE721688903ECE78907EAE763
:100B6000FFF7B0FDA0EB0801494502D90320BDE81D
:100B7000F087A068696800F00C00B0EB810FEFD13E
:100B80002878800705D5A068A96820F0F000084300
:100B9000A060306800F00700B8420BD9306820F040
:100BA000070038433060306800F00700B84201D0D9
:100BB0000120DCE72878400705D5A068E96820F423
:100BC000E0600843A0602878000706D5A06829697E
:100BD00020F4605040EAC100A06000F03FF8A16836
:100BE000094AC1F30311515C01F01F01C8400749D4
:100BF000086007480068BDE8F047FFF781BD0000C6
:100C000000200240001002401826000820000020AA
:100C1000180000200548064900688968054AC1F3A4
:100C20000221515C01F01F01C840704720000020E4
:100C300000100240582600080548064900688968E7
:100C4000054AC1F3C221515C01F01F01C840704741
:100C500020000020001002405826000870B52549E9
:100C6000002318468A68CC6812F00C0204F00306D0
:100C7000214C4FEA640509D00C2A05D0042A32D051
:100C8000082A00D1284670BD012E10D10B681B0721
:100C900004D4D1F89430C3F3032302E00B68C3F308
:100CA0000313164E56F82330DAB10C2AEBD1C8687C
:100CB00000F00300022818D0032818D01846CA688C
:100CC000CB68C2F30212C3F306234343521CB3FBA7
:100CD000F2F2C868C0F34160401C4000B2FBF0F083
:100CE00070BD184670BD204670BD2046E7E7284617
:100CF000E5E70000001002400024F4002826000868
:100D00002DE9F84304006FD0FE4DA86800F00C06F2
:100D1000E86800F003072078C00664D576B10C2E91
:100D200001D1012F0AD0A069002828687AD040F0AC
:100D300001002860FFF7C6FC80465DE02868800758
:100D400002D5A0690028DED0216A2868000703D5F3
:100D5000286800F0F00004E0D5F89400F02202EAE0
:100D60001010814216D9084600F086FF00283BD1BA
:100D7000286840F0080028602868216A20F0F00008
:100D8000084328606868E16920F47F4040EA012058
:100D9000686016E0286840F0080028602868216A2A
:100DA00020F0F000084328606868E16920F47F4083
:100DB00040EA0120686026B9206A00F05DFF002843
:100DC000D5D1FFF74BFFA968CF4AC1F30311515C9E
:100DD00001F01F01C840CD490860CD480068FFF709
:100DE0008FFC00287ED12EE0CAE000BFFFF76AFC2E
:100DF000A0EB0800022876D828688007F6D5286876
:100E000040F0080028602868216A20F0F0000843BC
:100E100028606868E16920F47F4040EA012068604A
:100E200011E0FFE720F001002860FFF74BFC80464F
:100E300006E000BFFFF746FCA0EB08000228DAD866
:100E400028688007F6D42078C00740D0082E18D034
:100E50000C2E01D1032F14D06068B0F5803F17D05D
:100E6000B0F5A02F286817D020F4803028602868BB
:100E700020F4802028606068E0B1FFF723FC804602
:100E800014E02868800322D56068002878D01EE02E
:100E9000286840F48030EDE740F480202860F7E7D0
:100EA000FFF710FCA0EB08006428A4D82868800392
:100EB000F6D50CE0FFF706FC804605E0FFF702FCE4
:100EC000A0EB0800642896D828688003F6D4207820
:100ED00080073BD5042E11D00C2E01D1022F0DD04E
:100EE000E06801E0B6E1FFE0002828681ED040F489
:100EF00080702860FFF7E6FB07460CE02868400595
:100F00000CD5E0680028C1D008E000BFFFF7DAFB8D
:100F1000C01B022893D828684005F7D56868217C53
:100F200020F0F85040EA016068600FE020F4807023
:100F30002860FFF7C7FB074605E000BFFFF7C2FBCD
:100F4000C01B0228B1D828684005F7D420780007D4
:100F500029D560690028D5F8940012D040F001002E
:100F6000C5F89400FFF7AEFB074604E0FFF7AAFBC5
:100F7000C01B022899D8D5F894008007F6D512E056
:100F80002BE120F00100C5F89400FFF79BFB07461A
:100F900005E000BFFFF796FBC01B022885D8D5F8F7
:100FA00094008007F6D42078400766D5A86D002706
:100FB000C00008D4A86D40F08050A865A86D012736
:100FC00000F08050009053480168C90512D40168B0
:100FD000814641F480710160FFF774FB804605E0B3
:100FE000FFF770FBA0EB080002287DD8D9F80000BD
:100FF000C005F5D5A068012816D00528D5F89000C1
:1010000017D020F00100C5F89000D5F8900020F02E
:10101000040000BFC5F89000A06841F28839C0B153
:10102000FFF750FB80460FE0D5F8900040F001003C
:10103000F0E740F00400C5F89000F5E7FFF742FB49
:10104000A0EB080149454FD8D5F890008007F5D5A9
:101050000EE0FFF737FB804606E000BFFFF732FBEC
:10106000A0EB080149453FD8D5F890008007F5D49A
:101070001FB1A86D20F08050A8652078800628D583
:10108000606A0028D5F8980012D040F00100C5F839
:101090009800FFF717FB074605E000BFFFF712FBBC
:1010A000C01B022820D8D5F898008007F6D510E09C
:1010B00020F00100C5F89800FFF704FB074604E0A4
:1010C000FFF700FBC01B02280ED8D5F89800800758
:1010D000F6D4A06AA8B1022824D00C2E7DD02868AE
:1010E00020F08070286000E0B3E02868000103D49D
:1010F000E86820F00300E860E86807490840E86015
:101100000CE09FE00010024018260008200000209C
:101110001800002000700040FFFFEEFEFFF7D2FA3B
:10112000044699E0E868E26A00F00301914226D1A2
:10113000216B00F070020901103991421FD1626BDE
:1011400000F4FE41B1EB022F19D194F8382000F0E1
:101150007841B1EBC26F12D1A18F00F4C0024908EF
:101160004905A1F50011914209D194F8401000F011
:10117000C06049084906A1F1007181424BD00C2E94
:101180006FD0286840016CD4286820F080702860F7
:10119000FFF798FA064604E0FFF794FA801B02284E
:1011A00057D828688001F7D4F4E90B016FF00F02DB
:1011B00002EB01110843218A5204490802EB415114
:1011C000A26841EA02210843217D4FF07E4249088E
:1011D00002EB41610843217B00E042E040EAC1604C
:1011E000E968214A11400843E860286840F08070AF
:1011F0002860E86840F08070E860FFF763FA044612
:1012000005E000BFFFF75EFA001B022821D828681E
:101210008001F7D523E02868800120D4286840F0B9
:1012200080702860E86840F08070E860FFF74AFA54
:10123000044604E0FFF746FA001B022809D8286894
:101240008001F7D50BE000BFFFF73CFA001B022836
:1012500002D90320BDE8F88328688001F4D4002077
:10126000F8E70120F6E700008C809D0110B5401ED4
:10127000B0F1807F01D3012010BD4FF0E024606108
:101280000F21601701F03BF80020A06107202061CA
:10129000002010BD7047704770470000F0B590F80F
:1012A0003C20012A29D0012480F83C40022280F809
:1012B0003D2003685A689D68114EB34203D122F461
:1012C00070074A683A4322F070070A683A435A6046
:1012D0000268B24205D0B2F1804F02D0094B9A4267
:1012E00004D1896825F080031943916080F83D405E
:1012F000002180F83C100846F0BD0220F0BD00003F
:10130000002C01400040014010B5040003D094F8C7
:101310003D0010B107E0012010BD002084F83C0022
:10132000204600F023F8022084F83D00211D2068AB
:1013300000F054FD012084F8480084F83E0084F851
:101340003F0084F8400084F8410084F8420084F8AB
:10135000430084F8440084F8450084F8460084F88B
:10136000470084F83D00002010BD000010B586B095
:10137000044614216846FEF762FF2068B0F1804FF2
:1013800025D11448816D41F001018165816D01F025
:1013900001010591C16C41F00101C164C06C0221E1
:1013A00000F0010005900120CDE90001002102912B
:1013B000CDE9031069464FF09040FFF7A5F80022F1
:1013C00011461C20FFF7E2F91C20FFF7D1F906B007
:1013D00010BD00000010024070B5044690F83C00BB
:1013E000012817D0012584F83C50022084F83D00E4
:1013F000226890682E4B184020F47F409060086867
:10140000502830D00DDC20284DD005DC98B31028B2
:101410003BD148E0022070BD302844D0402834D170
:1014200039E0602828D0702806D0B0F5805F2CD035
:10143000B0F5005F29D10AE0CB68D1E9012120682D
:1014400000F00FFD2068816841F0770109E0CB686A
:10145000D1E90121206800F004FD2068816841F491
:101460008041816011E0CA684968206800F00BFD86
:101470005021206807E016E0CA684968206800F03B
:101480003BFD6021206800F0F6FC84F83D50002010
:1014900084F83C0070BDCA684968206800F0F3FC1D
:1014A00040212068EFE7226801461046EBE7000084
:1014B00088FFFEFF70B50546007F012821D1264C2C
:1014C0004FF000016078002828460AD000F055FA55
:1014D000E060296800264E62A168884212D9401A4D
:1014E00018E000F04AFAA0602868016A21F00A01B9
:1014F00001622868016A41F0020101626078401CC3
:10150000607070BD814201D8206904E04FF6FF721F
:10151000511A08442061FEF712FF9FED101B53EC97
:10152000112BFEF797FE9FED0F1B53EC112BFEF7CF
:1015300091FEFEF711FF207066702868016A21F0A5
:101540000A0101622868016A016208480068C168EE
:1015500021F00201C16070BD000000209CC420B0D9
:101560007268A13F000000000000E03F9C090020DD
:101570002DE9F041054690F83C000C46012836D094
:10158000012085F83C008AB3042A42D02868082A42
:1015900051D0D4E90023E168066A26F48056066239
:1015A000C669076A26F4407646EA03234FF6FF76BB
:1015B00006EA013123F4704319434FF4204627F41F
:1015C000204306EA02321A43C16102622868C169F7
:1015D00021F44061C1612868C169A26841EA022121
:1015E000C161002085F83C00BDE8F08101E00220E7
:1015F000FAE7D4E90012E368286800F055FC28688F
:10160000816921F00C01816128688169A268114318
:101610000FE0D4E90012E368286800F07FFC286836
:10162000816921F44061816128688169A26841EA89
:1016300002218161D5E7D4E90027267B016A21F4E4
:1016400080710162C169036A21F00301394321F00D
:10165000F00731074FF4206647EA116123F4206355
:1016600006EA02221A43C16102622868C16921F0B8
:101670000C01C1612868C169A2681143B0E710B5C7
:10168000040003D094F83D0010B107E0012010BD24
:10169000002084F83C00204600F022F8022084F864
:1016A0003D00211D206800F099FB012084F84800CE
:1016B00084F83E0084F83F0084F8400084F841003C
:1016C00084F8420084F8430084F8440084F845001C
:1016D00084F8460084F8470084F83D00002010BDDF
:1016E0007047000010B5044679B1042912D00829CA
:1016F00015D00C2918D0102919D094F8430000BF38
:1017000094F84720012817D114E094F83E0094F88B
:101710004420F7E794F83F0094F84520F2E794F866
:10172000400094F84620EDE794F84100E8E794F88B
:101730004200E5E7012A01D0012010BD022071B16D
:10174000042915D008291CD00C293FD0102940D0DD
:1017500084F8430084F847000C291BD13CE084F84E
:101760003E0084F844002068C26842F0020210E0A3
:1017700084F83F0084F845002068C26842F0040203
:1017800007E084F8400084F846002068C26842F010
:101790000802C2600122206800F056FB114920684F
:1017A000884205D0B0F1804F02D00F49884207D15E
:1017B00081680E4A1140062906D0B1F5803F03D05A
:1017C000016841F001010160002010BD84F8410072
:1017D000C0E784F84200BDE72068C26842F010020A
:1017E000D7E70000002C0140004001400700010045
:1017F00070B50446006801694FF00005C9438907C8
:1018000015D4C168C943890711D4E91E01610120BB
:101810002077206880698007204602D0FFF74AFEC3
:1018200004E000F0A7F8204600F0A5F8257720682E
:101830000169C943490717D4C168C943490713D48B
:101840006FF004010161022020772068806910F4A4
:10185000407F204602D0FFF72DFE04E000F08AF81A
:10186000204600F088F8257720680169C9430907F8
:1018700016D4C168C943090712D46FF00801016189
:10188000042020772068C0698007204602D0FFF737
:1018900011FE04E000F06EF8204600F06CF82577A9
:1018A00020680169C943C90617D4C168C943C9067C
:1018B00013D46FF010010161082020772068C069FF
:1018C00010F4407F204602D0FFF7F4FD04E000F062
:1018D00051F8204600F04FF8257720680169C94388
:1018E000C90708D1C168C943C90704D1891E01616C
:1018F000204600F041F820680169C943090609D46F
:10190000C168C943090605D46FF080010161204612
:10191000FFF7C1FC20680169C943C90509D4C16842
:10192000C943090605D46FF4807101612046FFF7B1
:10193000B1FC20680169C943490609D4C168C9439B
:10194000490605D46FF040010161204600F02AF8F5
:1019500020680169C94389060BD4C168C943890657
:1019600007D46FF0200101612046BDE87040FFF709
:1019700093BC70BD7047704770470246002041B16C
:10198000042909D008290AD00C2901D11068006C5B
:1019900070471068406B70471068806B7047106824
:1019A000C06B7047704710B5040002D0A06F10B133
:1019B00007E0012010BD002084F87400204600F0EC
:1019C00025F82420A0672068016821F0010101604A
:1019D000204600F051FB0128ECD0606A10B120468F
:1019E00000F0B7FA2068416821F490414160206816
:1019F000816821F02A0181602068016841F00101BD
:101A000001602046BDE8104000F007BB10B586B06D
:101A1000044614216846FEF712FC134920688842E8
:101A200020D11248016E41F480410166016E01F43B
:101A300080410591C16C41F00101C164C06C6946EF
:101A400000F0010005904FF4C0600090022001906A
:101A50000020029003200390072004904FF0904054
:101A6000FEF752FD06B010BD0038014000100240E4
:101A7000FEE7000010B58CB00024059422480494C1
:101A80000694079408940A9409940094019402948B
:101A90004FF08041039401604F21C0E901144FF6DB
:101AA000FF71C0E903148461FFF72EFC08B172B620
:101AB000FEE74FF48050049004A91348FFF78CFC14
:101AC00008B172B6FEE71048FFF7D9FD08B172B64B
:101AD000FEE7089408A90C480A94FFF7DFFB08B159
:101AE00072B6FEE70A2000900120CDE9010404202F
:101AF0000390002269460448FFF73AFD002801D010
:101B000072B6FEE70CB010BD9C0900200C4810B561
:101B10000A4901604FF4E1314160002181600C22EB
:101B2000C160C0E904128161C16101624162FFF7D5
:101B30003AFF002801D072B6FEE710BD0038014020
:101B4000E8090020FEE7FEE7704700002DE9F041BC
:101B5000444C05468846E0680026810728680DD079
:101B6000E16801F00301814216D1A8B1E06869681B
:101B7000C0F30210401C88420ED120E0012804D09E
:101B8000022805D0032807D108E02168890701E071
:101B900021684905002907DB01265FE021688903E8
:101BA00002D421684903F5E7E1686A686FF00F0322
:101BB00021F0730103EB021211430143E16020683D
:101BC00020F080602060FEF77DFD074605E000BF45
:101BD000FEF778FDC01B022837D820680001F7D433
:101BE000B8F1000F18D0B8F1010F1DD0287D4FF0CB
:101BF0007E41400801EB4060A96840EA012021696C
:101C0000194A114008432061206840F0806020603C
:101C1000FEF758FD07461AE0A868297B000240EA53
:101C2000C1602169114AECE7288A1149400801EB9B
:101C30004050A96840EA012021690E4AE1E700BF4F
:101C4000FEF740FDC01B022801D9032606E02068EC
:101C50000001F5D52069A969084320613046BDE837
:101C6000F081000000100240FF80FFF9FF80FF07B5
:101C70000000E0FFFF809FFFF8B51C4D06460024E2
:101C8000A86DC00002D5FEF7E7FD0DE0A86D40F09D
:101C90008050A865A86D00F080500090FEF7DCFD34
:101CA000A96D21F08051A965B0F5007F04D0802E88
:101CB00007D94FF003040AE0802E08D9A02E01D8DE
:101CC00004E001D1022402E0702E00D10124084872
:101CD000016821F0070121430160006800F007005E
:101CE000A04201D00120F8BD0020F8BD0010024044
:101CF000002002407047000002480168491C016052
:101D0000FEF7E6BC0400002030B5ABB044216846C5
:101D1000FEF795FA142126A8FEF791FA542111A88E
:101D2000FEF78DFA10200124009000250694602013
:101D3000CDE9075002202821CDE90A04CDE90C4164
:101D40000721CDE90E1010906846FEF7D9FF08B1C3
:101D500072B6FEE70F2026900320CDE927052995CE
:101D6000042126A82A95FEF7C5FE08B172B6FEE743
:101D700011A819951194FEF777FD08B172B6FEE728
:101D80004FF40070FEF734FD002801D072B6FEE774
:101D90002BB030BD0B48016841F4700101600A4866
:101DA000016841F001010160002181600268074B78
:101DB0001A4002608214C260026822F4802202602B
:101DC0008161704788ED00E000100240FFFFF6EAF5
:101DD0000148FFF70DBD00009C09002070B50268A6
:101DE000164B4FF08046984201D0B04203D122F00A
:101DF00070044A682243124C124D984205D0B042FA
:101E000003D0A04201D0A84203D122F44076CA6890
:101E100032434E6922F08002324302608A68C26215
:101E20000A688262984203D0A04201D0A84201D140
:101E3000096901630121416170BD0000002C01406E
:101E4000004001400044014010B501F01F03012192
:101E5000046A99408C430462016A9A40114301620A
:101E600010BD10B5846842EA032224F47F440A437B
:101E70002243826010BD826822F070020A4342F061
:101E800007018160704710B5036A046A24F00104F9
:101E90000462846924F0F00444EA021423F00A0284
:101EA0000A438461026210BD70B5046A24F0010423
:101EB00004628469056A0E4EB04205D0B0F1804FCD
:101EC00002D00C4EB04203D124F00304144301E0CD
:101ED00044F001041A0724F0F00444EA126225F0E9
:101EE0000A0301F00A0119438261016270BD00001A
:101EF000002C01400040014010B5036A23F010039C
:101F000003628369046A23F4704343EA023224F0D3
:101F1000A00343EA01118261016210BD30B5046A79
:101F200024F0100404628469056A24F4407444EACD
:101F3000022222F470444FF6FF7202EA0332224377
:101F4000A02425F0A00304EA011119438261016273
:101F500030BD90F82410C90706D001684A68836A2A
:101F600022F400321A434A6090F82410890706D5FB
:101F700001684A68C36A22F480321A434A6090F8C2
:101F80002410490706D501684A68036B22F48022B1
:101F90001A434A6090F82410090706D501684A6878
:101FA000436B22F400421A434A6090F82410C90699
:101FB00006D501688A68836B22F480521A438A60CE
:101FC00090F82410890606D501688A68C36B22F44C
:101FD00000521A438A6090F82410490611D501680E
:101FE0004A68036C22F480121A434A60016CB1F50E
:101FF000801F06D101684A68436C22F4C0021A436C
:102000004A6090F82410090606D501684A68806C79
:1020100022F4002202434A607047F8B500260446C5
:10202000C0F88060FEF74EFB0546206800686FF040
:102030007E47000708D52B4600224FF400112046AA
:10204000009700F009F960B92068006840070AD5D8
:102050002B4600224FF480012046009700F0FCF848
:1020600008B10320F8BD2020A067E067266684F849
:1020700074600020F8BD00002DE9F04104460068BE
:102080002269A168E6691143626900253243114360
:102090006A4B02686A4E32400A4302602068416817
:1020A000E26821F44051114341602168A0699942DE
:1020B00001D0226A10438A6822F4306202438A60A7
:1020C0006049276860488F420DD1D0F8880010F031
:1020D000030006D0012838D0022834D0032821D1AB
:1020E00035E001211FE059498F420BD1D0F888001B
:1020F00010F00C0025D0042827D0082823D00C2865
:1021000010D124E09F420DD1D0F8880010F4406037
:1021100017D0B0F5806F18D0B0F5006F13D0B0F5C0
:10212000406F14D010214A4800264FF400429F42CD
:102130002DD171B1022912D004290DD0082971D1F5
:1021400023E00021EFE70221EDE70421EBE708217E
:10215000E9E7FEF75FFD01E0FEF780FDE8B36268A6
:1021600002EB420181425DD8B0EB023F5AD8010E2A
:1021700003025008181871410023FEF725F8354A6C
:10218000A0F54071914251D94CE01046E7E7E36970
:102190004FF6EF77934229D1092943D2DFE801F0C6
:1021A00005080E420B4242422400FEF733FD04E0D4
:1021B000FEF742FD01E0FEF751FD70B1410060689D
:1021C00001EB5001B1FBF0F080B2A0F11001B94277
:1021D00028D84FF6F071014000E029E0C0F342003A
:1021E00001432068C16023E01046E7E7092919D2BE
:1021F000DFE801F005080E180B1818181A00FEF792
:1022000009FD04E0FEF718FD01E0FEF727FD78B1B7
:10221000616800EB5100B0FBF1F080B2A0F1100159
:10222000B94203D9012503E01046F1E72168C860EF
:1022300066662846A666BDE8F08100000080004082
:10224000F369FFEF003801400010024000440040F5
:102250000024F400FFFC0F002DE9F0479A461746D2
:102260000E4604464FF000094FF02008089D39E063
:10227000681C37D0FEF726FAA0EB0A00A84222D845
:102280000DB32068016849072CD5C069C04300051B
:1022900028D421684FF4006008622068016821F4A6
:1022A000D07101602068816821F001018160C4F86B
:1022B0007880C4F87C80C4F8808000BF84F8749073
:1022C0000320BDE8F0872068016821F4D071016027
:1022D0002068816821F001018160C4F87880C4F829
:1022E0007C80EBE72068C06936EA000004D000205B
:1022F000B842BDD00020E4E70120F9E7FEE7090776
:10230000090E002804DB00F1E02080F8001470477B
:1023100000F00F0000F1E02080F8141D704702E08B
:1023200008C8121F08C1002AFAD170477047002060
:1023300001E001C1121F002AFBD1704770B50025D2
:1023400004460C260BE000BF05EB4500A26806EB37
:102350008001114402EB800000F04CF96D1C6068B4
:10236000401EA842F0DCD4E9010100EB40026FF00E
:102370000B0303EB8202401E11446060084670BDEF
:1023800070B500200821184C0BE000BF00EB4002A4
:10239000A36801EB82029D58002D01DD6D1E9D504A
:1023A000401C62688242F1DC08E00F48FFF7C6FF7C
:1023B00090E80E000C480C3800F036F860680028F1
:1023C00003DDA06880680028EFD007480C3840681B
:1023D000002807DD04480C38FFF7B0FF0068BDE8AF
:1023E0007040004770BD00003000002083B00090B6
:1023F000019102920099019A029B024803B000F0F9
:1024000013B800002400002006486421002200F1D7
:10241000180380E80E000C30C0E9001200F2BC4145
:1024200081607047240000207FB50446406800901A
:10243000401C60600191029203930099A06801EB37
:10244000410100EB8100019901600299416003990B
:1024500081600098002816D00C260425401EA26832
:10246000009000EB400005EB8001029B515899421F
:1024700009DD02EB800106EB8000104400F0BAF8A1
:1024800000980028EAD17FBD86B0FEF729F9FFF752
:102490003BFC14216846FDF7D2FE1D48C16C41F09B
:1024A0000101C164C06C4FF0904500F0010005903F
:1024B00000220A212846FEF700F90A200090012098
:1024C0000024CDE90104694628460394FEF71CF870
:1024D000FFF7D0FAFFF71AFB00210E48FFF702F9C9
:1024E0000020FEF70DF9FFF78FFF012211460A4881
:1024F000FFF77CFF012211460848FFF777FF084DE0
:1025000068683228FCDDFFF73BFF6C60F8E70000ED
:10251000001002409C090020AD0400082525000899
:102520000000002010B54FF0904400220221204608
:10253000FEF7C3F80120FDF7D5FF01220221204656
:10254000FEF7BBF80A20FDF7CDFF07480068C16819
:1025500041F00201C16001221146AFF23700BDE82F
:10256000104000F033B800009C0900207FB50446FD
:1025700040680090401C60600191029203930099B2
:10258000A06801EB410100EB810001990160029913
:102590004160039981600098002816D00C26082518
:1025A000401EA268009000EB400005EB8001039BF9
:1025B0005158994209DD02EB800106EB800010447E
:1025C00000F018F800980028EAD17FBD83B0009091
:1025D000019102920099002A019A029B03D00448BB
:1025E00003B0FFF7C3BF024803B00C38FFF71CBFAE
:1025F000300000201EB50268009242680192826895
:10260000029291E81C0080E81C0000980860019884
:102610004860029888601EBD0000000000000000B5
:102620000102030406070809A0860100400D03000B
:10263000801A060000350C0040420F0080841E0006
:1026400000093D0000127A000024F40000366E01FB
:102650000048E801006CDC020000000001020304F5
:102660008026000800000020240000001E2300082F
:10267000A4260008240000204C0E00002E23000891
:10268000000000000000000000000000000000004A
:102690000000000001000000100000000000000029
:0426A00000093D00F0
:040000050800018D61
:00000001FF
